{
  "_format": "hh-sol-artifact-1",
  "contractName": "Poll",
  "sourceName": "contracts/Poll.sol",
  "abi": [
    {
      "inputs": [],
      "stateMutability": "nonpayable",
      "type": "constructor"
    },
    {
      "inputs": [],
      "name": "getActiveQuestion",
      "outputs": [
        {
          "components": [
            {
              "internalType": "string",
              "name": "text",
              "type": "string"
            },
            {
              "components": [
                {
                  "internalType": "string",
                  "name": "text",
                  "type": "string"
                },
                {
                  "internalType": "uint256",
                  "name": "votes",
                  "type": "uint256"
                }
              ],
              "internalType": "struct Poll.Answer[2]",
              "name": "answers",
              "type": "tuple[2]"
            }
          ],
          "internalType": "struct Poll.Question",
          "name": "",
          "type": "tuple"
        }
      ],
      "stateMutability": "view",
      "type": "function"
    },
    {
      "inputs": [
        {
          "internalType": "uint256",
          "name": "answerIndex",
          "type": "uint256"
        }
      ],
      "name": "vote",
      "outputs": [],
      "stateMutability": "nonpayable",
      "type": "function"
    }
  ],
  "bytecode": "0x60806040523480156200001157600080fd5b506200005d6040518060400160405280601081526020017f48692066726f6d20636f6e7472616374000000000000000000000000000000008152506200022760201b620007851760201c565b6040518060400160405280600d81526020017f43617473206f7220446f67733f00000000000000000000000000000000000000815250600080019080519060200190620000ac929190620002f3565b5060405180604001604052806040518060400160405280600481526020017f436174730000000000000000000000000000000000000000000000000000000081525081526020016002815250600060010160006002811062000137577f4e487b7100000000000000000000000000000000000000000000000000000000600052603260045260246000fd5b60020201600082015181600001908051906020019062000159929190620002f3565b506020820151816001015590505060405180604001604052806040518060400160405280600481526020017f446f677300000000000000000000000000000000000000000000000000000000815250815260200160008152506000600101600160028110620001f1577f4e487b7100000000000000000000000000000000000000000000000000000000600052603260045260246000fd5b60020201600082015181600001908051906020019062000213929190620002f3565b5060208201518160010155905050620004d0565b620002c7816040516024016200023e9190620003e4565b6040516020818303038152906040527f41304fac000000000000000000000000000000000000000000000000000000007bffffffffffffffffffffffffffffffffffffffffffffffffffffffff19166020820180517bffffffffffffffffffffffffffffffffffffffffffffffffffffffff8381831617835250505050620002ca60201b60201c565b50565b60008151905060006a636f6e736f6c652e6c6f679050602083016000808483855afa5050505050565b82805462000301906200045a565b90600052602060002090601f01602090048101928262000325576000855562000371565b82601f106200034057805160ff191683800117855562000371565b8280016001018555821562000371579182015b828111156200037057825182559160200191906001019062000353565b5b50905062000380919062000384565b5090565b5b808211156200039f57600081600090555060010162000385565b5090565b6000620003b08262000408565b620003bc818562000413565b9350620003ce81856020860162000424565b620003d981620004bf565b840191505092915050565b60006020820190508181036000830152620004008184620003a3565b905092915050565b600081519050919050565b600082825260208201905092915050565b60005b838110156200044457808201518184015260208101905062000427565b8381111562000454576000848401525b50505050565b600060028204905060018216806200047357607f821691505b602082108114156200048a576200048962000490565b5b50919050565b7f4e487b7100000000000000000000000000000000000000000000000000000000600052602260045260246000fd5b6000601f19601f8301169050919050565b610f7080620004e06000396000f3fe608060405234801561001057600080fd5b50600436106100365760003560e01c80630121b93f1461003b578063422a406c14610057575b600080fd5b61005560048036038101906100509190610aa3565b610075565b005b61005f610216565b60405161006c9190610d73565b60405180910390f35b6101b76040518060400160405280600b81526020017f566f74696e6720666f7220000000000000000000000000000000000000000000815250826040518060400160405280600481526020017f202d3e200000000000000000000000000000000000000000000000000000000081525060006001018560028110610122577f4e487b7100000000000000000000000000000000000000000000000000000000600052603260045260246000fd5b60020201600001805461013490610e82565b80601f016020809104026020016040519081016040528092919081815260200182805461016090610e82565b80156101ad5780601f10610182576101008083540402835291602001916101ad565b820191906000526020600020905b81548152906001019060200180831161019057829003601f168201915b505050505061081e565b6001600060010182600281106101f6577f4e487b7100000000000000000000000000000000000000000000000000000000600052603260045260246000fd5b60020201600101600082825461020c9190610def565b9250508190555050565b61021e610a27565b6102e96040518060400160405280601d81526020017f52657475726e696e6720616374697665207175657374696f6e3a20257300000081525060008001805461026690610e82565b80601f016020809104026020016040519081016040528092919081815260200182805461029290610e82565b80156102df5780601f106102b4576101008083540402835291602001916102df565b820191906000526020600020905b8154815290600101906020018083116102c257829003601f168201915b50505050506108c0565b6104716040518060400160405280600a81526020017f416e7377657220313a20000000000000000000000000000000000000000000008152506000600101600060028110610360577f4e487b7100000000000000000000000000000000000000000000000000000000600052603260045260246000fd5b60020201600001805461037290610e82565b80601f016020809104026020016040519081016040528092919081815260200182805461039e90610e82565b80156103eb5780601f106103c0576101008083540402835291602001916103eb565b820191906000526020600020905b8154815290600101906020018083116103ce57829003601f168201915b50505050506040518060400160405280600481526020017f202d3e20000000000000000000000000000000000000000000000000000000008152506000600101600060028110610464577f4e487b7100000000000000000000000000000000000000000000000000000000600052603260045260246000fd5b600202016001015461095c565b6105f96040518060400160405280600a81526020017f416e7377657220323a200000000000000000000000000000000000000000000081525060006001016001600281106104e8577f4e487b7100000000000000000000000000000000000000000000000000000000600052603260045260246000fd5b6002020160000180546104fa90610e82565b80601f016020809104026020016040519081016040528092919081815260200182805461052690610e82565b80156105735780601f1061054857610100808354040283529160200191610573565b820191906000526020600020905b81548152906001019060200180831161055657829003601f168201915b50505050506040518060400160405280600481526020017f202d3e200000000000000000000000000000000000000000000000000000000081525060006001016001600281106105ec577f4e487b7100000000000000000000000000000000000000000000000000000000600052603260045260246000fd5b600202016001015461095c565b600060405180604001604052908160008201805461061690610e82565b80601f016020809104026020016040519081016040528092919081815260200182805461064290610e82565b801561068f5780601f106106645761010080835404028352916020019161068f565b820191906000526020600020905b81548152906001019060200180831161067257829003601f168201915b5050505050815260200160018201600280602002604051908101604052809291906000905b82821015610778578382600202016040518060400160405290816000820180546106dd90610e82565b80601f016020809104026020016040519081016040528092919081815260200182805461070990610e82565b80156107565780601f1061072b57610100808354040283529160200191610756565b820191906000526020600020905b81548152906001019060200180831161073957829003601f168201915b50505050508152602001600182015481525050815260200190600101906106b4565b5050505081525050905090565b61081b816040516024016107999190610c66565b6040516020818303038152906040527f41304fac000000000000000000000000000000000000000000000000000000007bffffffffffffffffffffffffffffffffffffffffffffffffffffffff19166020820180517bffffffffffffffffffffffffffffffffffffffffffffffffffffffff83818316178352505050506109fe565b50565b6108ba848484846040516024016108389493929190610d19565b6040516020818303038152906040527f6c98dae2000000000000000000000000000000000000000000000000000000007bffffffffffffffffffffffffffffffffffffffffffffffffffffffff19166020820180517bffffffffffffffffffffffffffffffffffffffffffffffffffffffff83818316178352505050506109fe565b50505050565b61095882826040516024016108d6929190610c88565b6040516020818303038152906040527f4b5c4277000000000000000000000000000000000000000000000000000000007bffffffffffffffffffffffffffffffffffffffffffffffffffffffff19166020820180517bffffffffffffffffffffffffffffffffffffffffffffffffffffffff83818316178352505050506109fe565b5050565b6109f8848484846040516024016109769493929190610cbf565b6040516020818303038152906040527f9fd009f5000000000000000000000000000000000000000000000000000000007bffffffffffffffffffffffffffffffffffffffffffffffffffffffff19166020820180517bffffffffffffffffffffffffffffffffffffffffffffffffffffffff83818316178352505050506109fe565b50505050565b60008151905060006a636f6e736f6c652e6c6f679050602083016000808483855afa5050505050565b604051806040016040528060608152602001610a41610a47565b81525090565b60405180604001604052806002905b610a5e610a74565b815260200190600190039081610a565790505090565b604051806040016040528060608152602001600081525090565b600081359050610a9d81610f23565b92915050565b600060208284031215610ab557600080fd5b6000610ac384828501610a8e565b91505092915050565b6000610ad88383610bc7565b905092915050565b6000610aeb82610d9f565b610af58185610dc2565b935083602082028501610b0785610d95565b8060005b85811015610b435784840389528151610b248582610acc565b9450610b2f83610db5565b925060208a01995050600181019050610b0b565b50829750879550505050505092915050565b6000610b6082610daa565b610b6a8185610dcd565b9350610b7a818560208601610e4f565b610b8381610f12565b840191505092915050565b6000610b9982610daa565b610ba38185610dde565b9350610bb3818560208601610e4f565b610bbc81610f12565b840191505092915050565b60006040830160008301518482036000860152610be48282610b55565b9150506020830151610bf96020860182610c48565b508091505092915050565b60006040830160008301518482036000860152610c218282610b55565b91505060208301518482036020860152610c3b8282610ae0565b9150508091505092915050565b610c5181610e45565b82525050565b610c6081610e45565b82525050565b60006020820190508181036000830152610c808184610b8e565b905092915050565b60006040820190508181036000830152610ca28185610b8e565b90508181036020830152610cb68184610b8e565b90509392505050565b60006080820190508181036000830152610cd98187610b8e565b90508181036020830152610ced8186610b8e565b90508181036040830152610d018185610b8e565b9050610d106060830184610c57565b95945050505050565b60006080820190508181036000830152610d338187610b8e565b9050610d426020830186610c57565b8181036040830152610d548185610b8e565b90508181036060830152610d688184610b8e565b905095945050505050565b60006020820190508181036000830152610d8d8184610c04565b905092915050565b6000819050919050565b600060029050919050565b600081519050919050565b6000602082019050919050565b600081905092915050565b600082825260208201905092915050565b600082825260208201905092915050565b6000610dfa82610e45565b9150610e0583610e45565b9250827fffffffffffffffffffffffffffffffffffffffffffffffffffffffffffffffff03821115610e3a57610e39610eb4565b5b828201905092915050565b6000819050919050565b60005b83811015610e6d578082015181840152602081019050610e52565b83811115610e7c576000848401525b50505050565b60006002820490506001821680610e9a57607f821691505b60208210811415610eae57610ead610ee3565b5b50919050565b7f4e487b7100000000000000000000000000000000000000000000000000000000600052601160045260246000fd5b7f4e487b7100000000000000000000000000000000000000000000000000000000600052602260045260246000fd5b6000601f19601f8301169050919050565b610f2c81610e45565b8114610f3757600080fd5b5056fea2646970667358221220d6cd8665054d85acbd42058b36e3157fc5232f04fcf56f3acb022bbc93ca947a64736f6c63430008040033",
  "linkReferences": {},
  "deployedLinkReferences": {}
}